{
  "_format": "hh-sol-artifact-1",
  "contractName": "BoboErc4646Bonus",
  "sourceName": "contracts/bonus/BoboErc4626Bonus.sol",
  "abi": [
    {
      "inputs": [
        {
          "internalType": "address",
          "name": "_assetAddress",
          "type": "address"
        },
        {
          "internalType": "uint256",
          "name": "_basicPoints",
          "type": "uint256"
        }
      ],
      "stateMutability": "nonpayable",
      "type": "constructor"
    },
    {
      "inputs": [
        {
          "internalType": "address",
          "name": "target",
          "type": "address"
        }
      ],
      "name": "AddressEmptyCode",
      "type": "error"
    },
    {
      "inputs": [
        {
          "internalType": "address",
          "name": "account",
          "type": "address"
        }
      ],
      "name": "AddressInsufficientBalance",
      "type": "error"
    },
    {
      "inputs": [
        {
          "internalType": "address",
          "name": "spender",
          "type": "address"
        },
        {
          "internalType": "uint256",
          "name": "allowance",
          "type": "uint256"
        },
        {
          "internalType": "uint256",
          "name": "needed",
          "type": "uint256"
        }
      ],
      "name": "ERC20InsufficientAllowance",
      "type": "error"
    },
    {
      "inputs": [
        {
          "internalType": "address",
          "name": "sender",
          "type": "address"
        },
        {
          "internalType": "uint256",
          "name": "balance",
          "type": "uint256"
        },
        {
          "internalType": "uint256",
          "name": "needed",
          "type": "uint256"
        }
      ],
      "name": "ERC20InsufficientBalance",
      "type": "error"
    },
    {
      "inputs": [
        {
          "internalType": "address",
          "name": "approver",
          "type": "address"
        }
      ],
      "name": "ERC20InvalidApprover",
      "type": "error"
    },
    {
      "inputs": [
        {
          "internalType": "address",
          "name": "receiver",
          "type": "address"
        }
      ],
      "name": "ERC20InvalidReceiver",
      "type": "error"
    },
    {
      "inputs": [
        {
          "internalType": "address",
          "name": "sender",
          "type": "address"
        }
      ],
      "name": "ERC20InvalidSender",
      "type": "error"
    },
    {
      "inputs": [
        {
          "internalType": "address",
          "name": "spender",
          "type": "address"
        }
      ],
      "name": "ERC20InvalidSpender",
      "type": "error"
    },
    {
      "inputs": [
        {
          "internalType": "address",
          "name": "receiver",
          "type": "address"
        },
        {
          "internalType": "uint256",
          "name": "assets",
          "type": "uint256"
        },
        {
          "internalType": "uint256",
          "name": "max",
          "type": "uint256"
        }
      ],
      "name": "ERC4626ExceededMaxDeposit",
      "type": "error"
    },
    {
      "inputs": [
        {
          "internalType": "address",
          "name": "receiver",
          "type": "address"
        },
        {
          "internalType": "uint256",
          "name": "shares",
          "type": "uint256"
        },
        {
          "internalType": "uint256",
          "name": "max",
          "type": "uint256"
        }
      ],
      "name": "ERC4626ExceededMaxMint",
      "type": "error"
    },
    {
      "inputs": [
        {
          "internalType": "address",
          "name": "owner",
          "type": "address"
        },
        {
          "internalType": "uint256",
          "name": "shares",
          "type": "uint256"
        },
        {
          "internalType": "uint256",
          "name": "max",
          "type": "uint256"
        }
      ],
      "name": "ERC4626ExceededMaxRedeem",
      "type": "error"
    },
    {
      "inputs": [
        {
          "internalType": "address",
          "name": "owner",
          "type": "address"
        },
        {
          "internalType": "uint256",
          "name": "assets",
          "type": "uint256"
        },
        {
          "internalType": "uint256",
          "name": "max",
          "type": "uint256"
        }
      ],
      "name": "ERC4626ExceededMaxWithdraw",
      "type": "error"
    },
    {
      "inputs": [],
      "name": "FailedInnerCall",
      "type": "error"
    },
    {
      "inputs": [],
      "name": "MathOverflowedMulDiv",
      "type": "error"
    },
    {
      "inputs": [
        {
          "internalType": "address",
          "name": "token",
          "type": "address"
        }
      ],
      "name": "SafeERC20FailedOperation",
      "type": "error"
    },
    {
      "anonymous": false,
      "inputs": [
        {
          "indexed": true,
          "internalType": "address",
          "name": "owner",
          "type": "address"
        },
        {
          "indexed": true,
          "internalType": "address",
          "name": "spender",
          "type": "address"
        },
        {
          "indexed": false,
          "internalType": "uint256",
          "name": "value",
          "type": "uint256"
        }
      ],
      "name": "Approval",
      "type": "event"
    },
    {
      "anonymous": false,
      "inputs": [
        {
          "indexed": true,
          "internalType": "address",
          "name": "sender",
          "type": "address"
        },
        {
          "indexed": true,
          "internalType": "address",
          "name": "owner",
          "type": "address"
        },
        {
          "indexed": false,
          "internalType": "uint256",
          "name": "assets",
          "type": "uint256"
        },
        {
          "indexed": false,
          "internalType": "uint256",
          "name": "shares",
          "type": "uint256"
        }
      ],
      "name": "Deposit",
      "type": "event"
    },
    {
      "anonymous": false,
      "inputs": [
        {
          "indexed": true,
          "internalType": "address",
          "name": "from",
          "type": "address"
        },
        {
          "indexed": true,
          "internalType": "address",
          "name": "to",
          "type": "address"
        },
        {
          "indexed": false,
          "internalType": "uint256",
          "name": "value",
          "type": "uint256"
        }
      ],
      "name": "Transfer",
      "type": "event"
    },
    {
      "anonymous": false,
      "inputs": [
        {
          "indexed": true,
          "internalType": "address",
          "name": "sender",
          "type": "address"
        },
        {
          "indexed": true,
          "internalType": "address",
          "name": "receiver",
          "type": "address"
        },
        {
          "indexed": true,
          "internalType": "address",
          "name": "owner",
          "type": "address"
        },
        {
          "indexed": false,
          "internalType": "uint256",
          "name": "assets",
          "type": "uint256"
        },
        {
          "indexed": false,
          "internalType": "uint256",
          "name": "shares",
          "type": "uint256"
        }
      ],
      "name": "Withdraw",
      "type": "event"
    },
    {
      "inputs": [],
      "name": "_owner",
      "outputs": [
        {
          "internalType": "address payable",
          "name": "",
          "type": "address"
        }
      ],
      "stateMutability": "view",
      "type": "function"
    },
    {
      "inputs": [
        {
          "internalType": "address",
          "name": "owner",
          "type": "address"
        },
        {
          "internalType": "address",
          "name": "spender",
          "type": "address"
        }
      ],
      "name": "allowance",
      "outputs": [
        {
          "internalType": "uint256",
          "name": "",
          "type": "uint256"
        }
      ],
      "stateMutability": "view",
      "type": "function"
    },
    {
      "inputs": [
        {
          "internalType": "address",
          "name": "spender",
          "type": "address"
        },
        {
          "internalType": "uint256",
          "name": "value",
          "type": "uint256"
        }
      ],
      "name": "approve",
      "outputs": [
        {
          "internalType": "bool",
          "name": "",
          "type": "bool"
        }
      ],
      "stateMutability": "nonpayable",
      "type": "function"
    },
    {
      "inputs": [],
      "name": "asset",
      "outputs": [
        {
          "internalType": "address",
          "name": "",
          "type": "address"
        }
      ],
      "stateMutability": "view",
      "type": "function"
    },
    {
      "inputs": [
        {
          "internalType": "address",
          "name": "account",
          "type": "address"
        }
      ],
      "name": "balanceOf",
      "outputs": [
        {
          "internalType": "uint256",
          "name": "",
          "type": "uint256"
        }
      ],
      "stateMutability": "view",
      "type": "function"
    },
    {
      "inputs": [
        {
          "internalType": "uint256",
          "name": "shares",
          "type": "uint256"
        }
      ],
      "name": "convertToAssets",
      "outputs": [
        {
          "internalType": "uint256",
          "name": "",
          "type": "uint256"
        }
      ],
      "stateMutability": "view",
      "type": "function"
    },
    {
      "inputs": [
        {
          "internalType": "uint256",
          "name": "assets",
          "type": "uint256"
        }
      ],
      "name": "convertToShares",
      "outputs": [
        {
          "internalType": "uint256",
          "name": "",
          "type": "uint256"
        }
      ],
      "stateMutability": "view",
      "type": "function"
    },
    {
      "inputs": [],
      "name": "decimals",
      "outputs": [
        {
          "internalType": "uint8",
          "name": "",
          "type": "uint8"
        }
      ],
      "stateMutability": "view",
      "type": "function"
    },
    {
      "inputs": [
        {
          "internalType": "uint256",
          "name": "assets",
          "type": "uint256"
        },
        {
          "internalType": "address",
          "name": "receiver",
          "type": "address"
        }
      ],
      "name": "deposit",
      "outputs": [
        {
          "internalType": "uint256",
          "name": "",
          "type": "uint256"
        }
      ],
      "stateMutability": "nonpayable",
      "type": "function"
    },
    {
      "inputs": [],
      "name": "entryFeeBasicPoints",
      "outputs": [
        {
          "internalType": "uint256",
          "name": "",
          "type": "uint256"
        }
      ],
      "stateMutability": "view",
      "type": "function"
    },
    {
      "inputs": [
        {
          "internalType": "address",
          "name": "",
          "type": "address"
        }
      ],
      "name": "maxDeposit",
      "outputs": [
        {
          "internalType": "uint256",
          "name": "",
          "type": "uint256"
        }
      ],
      "stateMutability": "view",
      "type": "function"
    },
    {
      "inputs": [
        {
          "internalType": "address",
          "name": "",
          "type": "address"
        }
      ],
      "name": "maxMint",
      "outputs": [
        {
          "internalType": "uint256",
          "name": "",
          "type": "uint256"
        }
      ],
      "stateMutability": "view",
      "type": "function"
    },
    {
      "inputs": [
        {
          "internalType": "address",
          "name": "owner",
          "type": "address"
        }
      ],
      "name": "maxRedeem",
      "outputs": [
        {
          "internalType": "uint256",
          "name": "",
          "type": "uint256"
        }
      ],
      "stateMutability": "view",
      "type": "function"
    },
    {
      "inputs": [
        {
          "internalType": "address",
          "name": "owner",
          "type": "address"
        }
      ],
      "name": "maxWithdraw",
      "outputs": [
        {
          "internalType": "uint256",
          "name": "",
          "type": "uint256"
        }
      ],
      "stateMutability": "view",
      "type": "function"
    },
    {
      "inputs": [
        {
          "internalType": "uint256",
          "name": "shares",
          "type": "uint256"
        },
        {
          "internalType": "address",
          "name": "receiver",
          "type": "address"
        }
      ],
      "name": "mint",
      "outputs": [
        {
          "internalType": "uint256",
          "name": "",
          "type": "uint256"
        }
      ],
      "stateMutability": "nonpayable",
      "type": "function"
    },
    {
      "inputs": [],
      "name": "name",
      "outputs": [
        {
          "internalType": "string",
          "name": "",
          "type": "string"
        }
      ],
      "stateMutability": "view",
      "type": "function"
    },
    {
      "inputs": [
        {
          "internalType": "uint256",
          "name": "assets",
          "type": "uint256"
        }
      ],
      "name": "previewDeposit",
      "outputs": [
        {
          "internalType": "uint256",
          "name": "",
          "type": "uint256"
        }
      ],
      "stateMutability": "view",
      "type": "function"
    },
    {
      "inputs": [
        {
          "internalType": "uint256",
          "name": "shares",
          "type": "uint256"
        }
      ],
      "name": "previewMint",
      "outputs": [
        {
          "internalType": "uint256",
          "name": "",
          "type": "uint256"
        }
      ],
      "stateMutability": "view",
      "type": "function"
    },
    {
      "inputs": [
        {
          "internalType": "uint256",
          "name": "shares",
          "type": "uint256"
        }
      ],
      "name": "previewRedeem",
      "outputs": [
        {
          "internalType": "uint256",
          "name": "",
          "type": "uint256"
        }
      ],
      "stateMutability": "view",
      "type": "function"
    },
    {
      "inputs": [
        {
          "internalType": "uint256",
          "name": "assets",
          "type": "uint256"
        }
      ],
      "name": "previewWithdraw",
      "outputs": [
        {
          "internalType": "uint256",
          "name": "",
          "type": "uint256"
        }
      ],
      "stateMutability": "view",
      "type": "function"
    },
    {
      "inputs": [
        {
          "internalType": "uint256",
          "name": "shares",
          "type": "uint256"
        },
        {
          "internalType": "address",
          "name": "receiver",
          "type": "address"
        },
        {
          "internalType": "address",
          "name": "owner",
          "type": "address"
        }
      ],
      "name": "redeem",
      "outputs": [
        {
          "internalType": "uint256",
          "name": "",
          "type": "uint256"
        }
      ],
      "stateMutability": "nonpayable",
      "type": "function"
    },
    {
      "inputs": [],
      "name": "symbol",
      "outputs": [
        {
          "internalType": "string",
          "name": "",
          "type": "string"
        }
      ],
      "stateMutability": "view",
      "type": "function"
    },
    {
      "inputs": [],
      "name": "totalAssets",
      "outputs": [
        {
          "internalType": "uint256",
          "name": "",
          "type": "uint256"
        }
      ],
      "stateMutability": "view",
      "type": "function"
    },
    {
      "inputs": [],
      "name": "totalSupply",
      "outputs": [
        {
          "internalType": "uint256",
          "name": "",
          "type": "uint256"
        }
      ],
      "stateMutability": "view",
      "type": "function"
    },
    {
      "inputs": [
        {
          "internalType": "address",
          "name": "to",
          "type": "address"
        },
        {
          "internalType": "uint256",
          "name": "value",
          "type": "uint256"
        }
      ],
      "name": "transfer",
      "outputs": [
        {
          "internalType": "bool",
          "name": "",
          "type": "bool"
        }
      ],
      "stateMutability": "nonpayable",
      "type": "function"
    },
    {
      "inputs": [
        {
          "internalType": "address",
          "name": "from",
          "type": "address"
        },
        {
          "internalType": "address",
          "name": "to",
          "type": "address"
        },
        {
          "internalType": "uint256",
          "name": "value",
          "type": "uint256"
        }
      ],
      "name": "transferFrom",
      "outputs": [
        {
          "internalType": "bool",
          "name": "",
          "type": "bool"
        }
      ],
      "stateMutability": "nonpayable",
      "type": "function"
    },
    {
      "inputs": [
        {
          "internalType": "uint256",
          "name": "assets",
          "type": "uint256"
        },
        {
          "internalType": "address",
          "name": "receiver",
          "type": "address"
        },
        {
          "internalType": "address",
          "name": "owner",
          "type": "address"
        }
      ],
      "name": "withdraw",
      "outputs": [
        {
          "internalType": "uint256",
          "name": "",
          "type": "uint256"
        }
      ],
      "stateMutability": "nonpayable",
      "type": "function"
    }
  ],
  "bytecode": "0x60c06040523480156200001157600080fd5b5060405162002ec938038062002ec9833981810160405281019062000037919062000345565b816040518060400160405280600a81526020017f426f626f20746f6b656e000000000000000000000000000000000000000000008152506040518060400160405280600581526020017f76424f424f0000000000000000000000000000000000000000000000000000008152508160039081620000b59190620005fc565b508060049081620000c79190620005fc565b505050600080620000de836200018660201b60201c565b9150915081620000f0576012620000f2565b805b60ff1660a08160ff16815250508273ffffffffffffffffffffffffffffffffffffffff1660808173ffffffffffffffffffffffffffffffffffffffff168152505050505033600560006101000a81548173ffffffffffffffffffffffffffffffffffffffff021916908373ffffffffffffffffffffffffffffffffffffffff160217905550806006819055505050620007a7565b6000806000808473ffffffffffffffffffffffffffffffffffffffff1660405160240160405160208183030381529060405263313ce56760e01b6020820180517bffffffffffffffffffffffffffffffffffffffffffffffffffffffff8381831617835250505050604051620001fd91906200075c565b600060405180830381855afa9150503d80600081146200023a576040519150601f19603f3d011682016040523d82523d6000602084013e6200023f565b606091505b50915091508180156200025457506020815110155b15620002915760008180602001905181019062000272919062000775565b905060ff801681116200028f57600181945094505050506200029b565b505b6000809350935050505b915091565b600080fd5b600073ffffffffffffffffffffffffffffffffffffffff82169050919050565b6000620002d282620002a5565b9050919050565b620002e481620002c5565b8114620002f057600080fd5b50565b6000815190506200030481620002d9565b92915050565b6000819050919050565b6200031f816200030a565b81146200032b57600080fd5b50565b6000815190506200033f8162000314565b92915050565b600080604083850312156200035f576200035e620002a0565b5b60006200036f85828601620002f3565b925050602062000382858286016200032e565b9150509250929050565b600081519050919050565b7f4e487b7100000000000000000000000000000000000000000000000000000000600052604160045260246000fd5b7f4e487b7100000000000000000000000000000000000000000000000000000000600052602260045260246000fd5b600060028204905060018216806200040e57607f821691505b602082108103620004245762000423620003c6565b5b50919050565b60008190508160005260206000209050919050565b60006020601f8301049050919050565b600082821b905092915050565b6000600883026200048e7fffffffffffffffffffffffffffffffffffffffffffffffffffffffffffffffff826200044f565b6200049a86836200044f565b95508019841693508086168417925050509392505050565b6000819050919050565b6000620004dd620004d7620004d1846200030a565b620004b2565b6200030a565b9050919050565b6000819050919050565b620004f983620004bc565b620005116200050882620004e4565b8484546200045c565b825550505050565b600090565b6200052862000519565b62000535818484620004ee565b505050565b5b818110156200055d57620005516000826200051e565b6001810190506200053b565b5050565b601f821115620005ac5762000576816200042a565b62000581846200043f565b8101602085101562000591578190505b620005a9620005a0856200043f565b8301826200053a565b50505b505050565b600082821c905092915050565b6000620005d160001984600802620005b1565b1980831691505092915050565b6000620005ec8383620005be565b9150826002028217905092915050565b62000607826200038c565b67ffffffffffffffff81111562000623576200062262000397565b5b6200062f8254620003f5565b6200063c82828562000561565b600060209050601f8311600181146200067457600084156200065f578287015190505b6200066b8582620005de565b865550620006db565b601f19841662000684866200042a565b60005b82811015620006ae5784890151825560018201915060208501945060208101905062000687565b86831015620006ce5784890151620006ca601f891682620005be565b8355505b6001600288020188555050505b505050505050565b600081519050919050565b600081905092915050565b60005b8381101562000719578082015181840152602081019050620006fc565b60008484015250505050565b60006200073282620006e3565b6200073e8185620006ee565b935062000750818560208601620006f9565b80840191505092915050565b60006200076a828462000725565b915081905092915050565b6000602082840312156200078e576200078d620002a0565b5b60006200079e848285016200032e565b91505092915050565b60805160a0516126e7620007e2600039600061080f01526000818161063201528181610841015281816116e4015261185401526126e76000f3fe608060405234801561001057600080fd5b50600436106101a95760003560e01c806394bf804d116100f9578063ba08765211610097578063ce96cb7711610071578063ce96cb771461056e578063d905777e1461059e578063dd62ed3e146105ce578063ef8b30f7146105fe576101a9565b8063ba087652146104de578063c63d75b61461050e578063c6e6f5921461053e576101a9565b8063ab980f3d116100d3578063ab980f3d14610442578063b2bdfa7b14610460578063b3d7f6b91461047e578063b460af94146104ae576101a9565b806394bf804d146103c457806395d89b41146103f4578063a9059cbb14610412576101a9565b806323b872dd11610166578063402d267d11610140578063402d267d146103045780634cdad506146103345780636e553f651461036457806370a0823114610394576101a9565b806323b872dd14610298578063313ce567146102c857806338d52e0f146102e6576101a9565b806301e1d114146101ae57806306fdde03146101cc57806307a2d13a146101ea578063095ea7b31461021a5780630a28a4771461024a57806318160ddd1461027a575b600080fd5b6101b661062e565b6040516101c39190611d9f565b60405180910390f35b6101d46106cf565b6040516101e19190611e4a565b60405180910390f35b61020460048036038101906101ff9190611e9d565b610761565b6040516102119190611d9f565b60405180910390f35b610234600480360381019061022f9190611f28565b610775565b6040516102419190611f83565b60405180910390f35b610264600480360381019061025f9190611e9d565b610798565b6040516102719190611d9f565b60405180910390f35b6102826107ca565b60405161028f9190611d9f565b60405180910390f35b6102b260048036038101906102ad9190611f9e565b6107d4565b6040516102bf9190611f83565b60405180910390f35b6102d0610803565b6040516102dd919061200d565b60405180910390f35b6102ee61083d565b6040516102fb9190612037565b60405180910390f35b61031e60048036038101906103199190612052565b610865565b60405161032b9190611d9f565b60405180910390f35b61034e60048036038101906103499190611e9d565b61088f565b60405161035b9190611d9f565b60405180910390f35b61037e6004803603810190610379919061207f565b6108c1565b60405161038b9190611d9f565b60405180910390f35b6103ae60048036038101906103a99190612052565b61094c565b6040516103bb9190611d9f565b60405180910390f35b6103de60048036038101906103d9919061207f565b610994565b6040516103eb9190611d9f565b60405180910390f35b6103fc610a1f565b6040516104099190611e4a565b60405180910390f35b61042c60048036038101906104279190611f28565b610ab1565b6040516104399190611f83565b60405180910390f35b61044a610ad4565b6040516104579190611d9f565b60405180910390f35b610468610ada565b60405161047591906120e0565b60405180910390f35b61049860048036038101906104939190611e9d565b610b00565b6040516104a59190611d9f565b60405180910390f35b6104c860048036038101906104c391906120fb565b610b32565b6040516104d59190611d9f565b60405180910390f35b6104f860048036038101906104f391906120fb565b610bc0565b6040516105059190611d9f565b60405180910390f35b61052860048036038101906105239190612052565b610c4e565b6040516105359190611d9f565b60405180910390f35b61055860048036038101906105539190611e9d565b610c78565b6040516105659190611d9f565b60405180910390f35b61058860048036038101906105839190612052565b610c8c565b6040516105959190611d9f565b60405180910390f35b6105b860048036038101906105b39190612052565b610ca8565b6040516105c59190611d9f565b60405180910390f35b6105e860048036038101906105e3919061214e565b610cba565b6040516105f59190611d9f565b60405180910390f35b61061860048036038101906106139190611e9d565b610d41565b6040516106259190611d9f565b60405180910390f35b60007f000000000000000000000000000000000000000000000000000000000000000073ffffffffffffffffffffffffffffffffffffffff166370a08231306040518263ffffffff1660e01b81526004016106899190612037565b602060405180830381865afa1580156106a6573d6000803e3d6000fd5b505050506040513d601f19601f820116820180604052508101906106ca91906121a3565b905090565b6060600380546106de906121ff565b80601f016020809104026020016040519081016040528092919081815260200182805461070a906121ff565b80156107575780601f1061072c57610100808354040283529160200191610757565b820191906000526020600020905b81548152906001019060200180831161073a57829003601f168201915b5050505050905090565b600061076e826000610d73565b9050919050565b600080610780610dcc565b905061078d818585610dd4565b600191505092915050565b6000806107ac836107a7610de6565b610deb565b90506107c281846107bd919061225f565b610e0f565b915050919050565b6000600254905090565b6000806107df610dcc565b90506107ec858285610e23565b6107f7858585610eb7565b60019150509392505050565b600061080d610fab565b7f00000000000000000000000000000000000000000000000000000000000000006108389190612293565b905090565b60007f0000000000000000000000000000000000000000000000000000000000000000905090565b60007fffffffffffffffffffffffffffffffffffffffffffffffffffffffffffffffff9050919050565b60008061089b83610fb0565b90506108ae816108a9610de6565b610fc4565b816108b991906122c8565b915050919050565b6000806108cd83610865565b905080841115610918578284826040517f79012fb200000000000000000000000000000000000000000000000000000000815260040161090f939291906122fc565b60405180910390fd5b600061092385610d41565b905061092e85610ff3565b610941610939610dcc565b85878461103d565b809250505092915050565b60008060008373ffffffffffffffffffffffffffffffffffffffff1673ffffffffffffffffffffffffffffffffffffffff168152602001908152602001600020549050919050565b6000806109a083610c4e565b9050808411156109eb578284826040517f284ff6670000000000000000000000000000000000000000000000000000000081526004016109e2939291906122fc565b60405180910390fd5b60006109f685610b00565b9050610a0b610a03610dcc565b85838861103d565b610a1481610ff3565b809250505092915050565b606060048054610a2e906121ff565b80601f0160208091040260200160405190810160405280929190818152602001828054610a5a906121ff565b8015610aa75780601f10610a7c57610100808354040283529160200191610aa7565b820191906000526020600020905b815481529060010190602001808311610a8a57829003601f168201915b5050505050905090565b600080610abc610dcc565b9050610ac9818585610eb7565b600191505092915050565b60065481565b600560009054906101000a900473ffffffffffffffffffffffffffffffffffffffff1681565b600080610b0c836110c6565b9050610b1f81610b1a6110da565b610deb565b81610b2a919061225f565b915050919050565b600080610b3e83610c8c565b905080851115610b89578285826040517ffe9cceec000000000000000000000000000000000000000000000000000000008152600401610b80939291906122fc565b60405180910390fd5b6000610b9486610798565b9050610ba086826110e4565b610bb4610bab610dcc565b868689856110e8565b80925050509392505050565b600080610bcc83610ca8565b905080851115610c17578285826040517fb94abeec000000000000000000000000000000000000000000000000000000008152600401610c0e939291906122fc565b60405180910390fd5b6000610c228661088f565b9050610c2e81876110e4565b610c42610c39610dcc565b8686848a6110e8565b80925050509392505050565b60007fffffffffffffffffffffffffffffffffffffffffffffffffffffffffffffffff9050919050565b6000610c85826000611173565b9050919050565b6000610ca1610c9a8361094c565b6000610d73565b9050919050565b6000610cb38261094c565b9050919050565b6000600160008473ffffffffffffffffffffffffffffffffffffffff1673ffffffffffffffffffffffffffffffffffffffff16815260200190815260200160002060008373ffffffffffffffffffffffffffffffffffffffff1673ffffffffffffffffffffffffffffffffffffffff16815260200190815260200160002054905092915050565b600080610d5583610d506110da565b610fc4565b9050610d6b8184610d6691906122c8565b6111cc565b915050919050565b6000610dc46001610d8261062e565b610d8c919061225f565b610d94610fab565b600a610da09190612466565b610da86107ca565b610db2919061225f565b84866111e0909392919063ffffffff16565b905092915050565b600033905090565b610de18383836001611237565b505050565b600090565b6000610e07826127106001866111e0909392919063ffffffff16565b905092915050565b6000610e1c826001611173565b9050919050565b6000610e2f8484610cba565b90507fffffffffffffffffffffffffffffffffffffffffffffffffffffffffffffffff8114610eb15781811015610ea1578281836040517ffb8f41b2000000000000000000000000000000000000000000000000000000008152600401610e98939291906122fc565b60405180910390fd5b610eb084848484036000611237565b5b50505050565b600073ffffffffffffffffffffffffffffffffffffffff168373ffffffffffffffffffffffffffffffffffffffff1603610f295760006040517f96c6fd1e000000000000000000000000000000000000000000000000000000008152600401610f209190612037565b60405180910390fd5b600073ffffffffffffffffffffffffffffffffffffffff168273ffffffffffffffffffffffffffffffffffffffff1603610f9b5760006040517fec442f05000000000000000000000000000000000000000000000000000000008152600401610f929190612037565b60405180910390fd5b610fa683838361140e565b505050565b600090565b6000610fbd826000610d73565b9050919050565b6000610feb8261271084610fd8919061225f565b6001866111e0909392919063ffffffff16565b905092915050565b6000600a8261100291906124e0565b905061103961100f61083d565b600560009054906101000a900473ffffffffffffffffffffffffffffffffffffffff163084611633565b5050565b60006110508361104b6110da565b610fc4565b9050600061105c6116b5565b905061106a868686866116df565b6000821180156110a657503073ffffffffffffffffffffffffffffffffffffffff168173ffffffffffffffffffffffffffffffffffffffff1614155b156110be576110bd6110b661083d565b8284611782565b5b505050505050565b60006110d3826001610d73565b9050919050565b6000600654905090565b5050565b60006110fb836110f6610de6565b610deb565b90506000611107611801565b90506111168787878787611806565b60008211801561115257503073ffffffffffffffffffffffffffffffffffffffff168173ffffffffffffffffffffffffffffffffffffffff1614155b1561116a5761116961116261083d565b8284611782565b5b50505050505050565b60006111c4611180610fab565b600a61118c9190612466565b6111946107ca565b61119e919061225f565b60016111a861062e565b6111b2919061225f565b84866111e0909392919063ffffffff16565b905092915050565b60006111d9826000611173565b9050919050565b6000806111ee8686866118ff565b90506111f983611a06565b8015611216575060008480611211576112106124b1565b5b868809115b1561122b57600181611228919061225f565b90505b80915050949350505050565b600073ffffffffffffffffffffffffffffffffffffffff168473ffffffffffffffffffffffffffffffffffffffff16036112a95760006040517fe602df050000000000000000000000000000000000000000000000000000000081526004016112a09190612037565b60405180910390fd5b600073ffffffffffffffffffffffffffffffffffffffff168373ffffffffffffffffffffffffffffffffffffffff160361131b5760006040517f94280d620000000000000000000000000000000000000000000000000000000081526004016113129190612037565b60405180910390fd5b81600160008673ffffffffffffffffffffffffffffffffffffffff1673ffffffffffffffffffffffffffffffffffffffff16815260200190815260200160002060008573ffffffffffffffffffffffffffffffffffffffff1673ffffffffffffffffffffffffffffffffffffffff168152602001908152602001600020819055508015611408578273ffffffffffffffffffffffffffffffffffffffff168473ffffffffffffffffffffffffffffffffffffffff167f8c5be1e5ebec7d5bd14f71427d1e84f3dd0314c0f7b2291e5b200ac8c7c3b925846040516113ff9190611d9f565b60405180910390a35b50505050565b600073ffffffffffffffffffffffffffffffffffffffff168373ffffffffffffffffffffffffffffffffffffffff1603611460578060026000828254611454919061225f565b92505081905550611533565b60008060008573ffffffffffffffffffffffffffffffffffffffff1673ffffffffffffffffffffffffffffffffffffffff168152602001908152602001600020549050818110156114ec578381836040517fe450d38c0000000000000000000000000000000000000000000000000000000081526004016114e3939291906122fc565b60405180910390fd5b8181036000808673ffffffffffffffffffffffffffffffffffffffff1673ffffffffffffffffffffffffffffffffffffffff16815260200190815260200160002081905550505b600073ffffffffffffffffffffffffffffffffffffffff168273ffffffffffffffffffffffffffffffffffffffff160361157c57806002600082825403925050819055506115c9565b806000808473ffffffffffffffffffffffffffffffffffffffff1673ffffffffffffffffffffffffffffffffffffffff168152602001908152602001600020600082825401925050819055505b8173ffffffffffffffffffffffffffffffffffffffff168373ffffffffffffffffffffffffffffffffffffffff167fddf252ad1be2c89b69c2b068fc378daa952ba7f163c4a11628f55a4df523b3ef836040516116269190611d9f565b60405180910390a3505050565b6116af848573ffffffffffffffffffffffffffffffffffffffff166323b872dd86868660405160240161166893929190612511565b604051602081830303815290604052915060e01b6020820180517bffffffffffffffffffffffffffffffffffffffffffffffffffffffff8381831617835250505050611a34565b50505050565b6000600560009054906101000a900473ffffffffffffffffffffffffffffffffffffffff16905090565b61170b7f0000000000000000000000000000000000000000000000000000000000000000853085611633565b6117158382611acb565b8273ffffffffffffffffffffffffffffffffffffffff168473ffffffffffffffffffffffffffffffffffffffff167fdcbc1c05240f31ff3ad067ef1ee35ce4997762752e3a095284754544f4c709d78484604051611774929190612548565b60405180910390a350505050565b6117fc838473ffffffffffffffffffffffffffffffffffffffff1663a9059cbb85856040516024016117b5929190612571565b604051602081830303815290604052915060e01b6020820180517bffffffffffffffffffffffffffffffffffffffffffffffffffffffff8381831617835250505050611a34565b505050565b600090565b8273ffffffffffffffffffffffffffffffffffffffff168573ffffffffffffffffffffffffffffffffffffffff161461184557611844838683610e23565b5b61184f8382611b4d565b61187a7f00000000000000000000000000000000000000000000000000000000000000008584611782565b8273ffffffffffffffffffffffffffffffffffffffff168473ffffffffffffffffffffffffffffffffffffffff168673ffffffffffffffffffffffffffffffffffffffff167ffbde797d201c681b91056529119e0b02407c7bb96a4a2c75c01fc9667232c8db85856040516118f0929190612548565b60405180910390a45050505050565b600080838502905060008019858709828110838203039150506000810361193a578382816119305761192f6124b1565b5b04925050506119ff565b808411611973576040517f227bc15300000000000000000000000000000000000000000000000000000000815260040160405180910390fd5b600084868809905082811182039150808303925060008560000386169050808604955080840493506001818260000304019050808302841793506000600287600302189050808702600203810290508087026002038102905080870260020381029050808702600203810290508087026002038102905080870260020381029050808502955050505050505b9392505050565b600060016002836003811115611a1f57611a1e61259a565b5b611a2991906125c9565b60ff16149050919050565b6000611a5f828473ffffffffffffffffffffffffffffffffffffffff16611bcf90919063ffffffff16565b90506000815114158015611a84575080806020019051810190611a829190612626565b155b15611ac657826040517f5274afe7000000000000000000000000000000000000000000000000000000008152600401611abd9190612037565b60405180910390fd5b505050565b600073ffffffffffffffffffffffffffffffffffffffff168273ffffffffffffffffffffffffffffffffffffffff1603611b3d5760006040517fec442f05000000000000000000000000000000000000000000000000000000008152600401611b349190612037565b60405180910390fd5b611b496000838361140e565b5050565b600073ffffffffffffffffffffffffffffffffffffffff168273ffffffffffffffffffffffffffffffffffffffff1603611bbf5760006040517f96c6fd1e000000000000000000000000000000000000000000000000000000008152600401611bb69190612037565b60405180910390fd5b611bcb8260008361140e565b5050565b6060611bdd83836000611be5565b905092915050565b606081471015611c2c57306040517fcd786059000000000000000000000000000000000000000000000000000000008152600401611c239190612037565b60405180910390fd5b6000808573ffffffffffffffffffffffffffffffffffffffff168486604051611c55919061269a565b60006040518083038185875af1925050503d8060008114611c92576040519150601f19603f3d011682016040523d82523d6000602084013e611c97565b606091505b5091509150611ca7868383611cb2565b925050509392505050565b606082611cc757611cc282611d41565b611d39565b60008251148015611cef575060008473ffffffffffffffffffffffffffffffffffffffff163b145b15611d3157836040517f9996b315000000000000000000000000000000000000000000000000000000008152600401611d289190612037565b60405180910390fd5b819050611d3a565b5b9392505050565b600081511115611d545780518082602001fd5b6040517f1425ea4200000000000000000000000000000000000000000000000000000000815260040160405180910390fd5b6000819050919050565b611d9981611d86565b82525050565b6000602082019050611db46000830184611d90565b92915050565b600081519050919050565b600082825260208201905092915050565b60005b83811015611df4578082015181840152602081019050611dd9565b60008484015250505050565b6000601f19601f8301169050919050565b6000611e1c82611dba565b611e268185611dc5565b9350611e36818560208601611dd6565b611e3f81611e00565b840191505092915050565b60006020820190508181036000830152611e648184611e11565b905092915050565b600080fd5b611e7a81611d86565b8114611e8557600080fd5b50565b600081359050611e9781611e71565b92915050565b600060208284031215611eb357611eb2611e6c565b5b6000611ec184828501611e88565b91505092915050565b600073ffffffffffffffffffffffffffffffffffffffff82169050919050565b6000611ef582611eca565b9050919050565b611f0581611eea565b8114611f1057600080fd5b50565b600081359050611f2281611efc565b92915050565b60008060408385031215611f3f57611f3e611e6c565b5b6000611f4d85828601611f13565b9250506020611f5e85828601611e88565b9150509250929050565b60008115159050919050565b611f7d81611f68565b82525050565b6000602082019050611f986000830184611f74565b92915050565b600080600060608486031215611fb757611fb6611e6c565b5b6000611fc586828701611f13565b9350506020611fd686828701611f13565b9250506040611fe786828701611e88565b9150509250925092565b600060ff82169050919050565b61200781611ff1565b82525050565b60006020820190506120226000830184611ffe565b92915050565b61203181611eea565b82525050565b600060208201905061204c6000830184612028565b92915050565b60006020828403121561206857612067611e6c565b5b600061207684828501611f13565b91505092915050565b6000806040838503121561209657612095611e6c565b5b60006120a485828601611e88565b92505060206120b585828601611f13565b9150509250929050565b60006120ca82611eca565b9050919050565b6120da816120bf565b82525050565b60006020820190506120f560008301846120d1565b92915050565b60008060006060848603121561211457612113611e6c565b5b600061212286828701611e88565b935050602061213386828701611f13565b925050604061214486828701611f13565b9150509250925092565b6000806040838503121561216557612164611e6c565b5b600061217385828601611f13565b925050602061218485828601611f13565b9150509250929050565b60008151905061219d81611e71565b92915050565b6000602082840312156121b9576121b8611e6c565b5b60006121c78482850161218e565b91505092915050565b7f4e487b7100000000000000000000000000000000000000000000000000000000600052602260045260246000fd5b6000600282049050600182168061221757607f821691505b60208210810361222a576122296121d0565b5b50919050565b7f4e487b7100000000000000000000000000000000000000000000000000000000600052601160045260246000fd5b600061226a82611d86565b915061227583611d86565b925082820190508082111561228d5761228c612230565b5b92915050565b600061229e82611ff1565b91506122a983611ff1565b9250828201905060ff8111156122c2576122c1612230565b5b92915050565b60006122d382611d86565b91506122de83611d86565b92508282039050818111156122f6576122f5612230565b5b92915050565b60006060820190506123116000830186612028565b61231e6020830185611d90565b61232b6040830184611d90565b949350505050565b60008160011c9050919050565b6000808291508390505b600185111561238a5780860481111561236657612365612230565b5b60018516156123755780820291505b808102905061238385612333565b945061234a565b94509492505050565b6000826123a3576001905061245f565b816123b1576000905061245f565b81600181146123c757600281146123d157612400565b600191505061245f565b60ff8411156123e3576123e2612230565b5b8360020a9150848211156123fa576123f9612230565b5b5061245f565b5060208310610133831016604e8410600b84101617156124355782820a9050838111156124305761242f612230565b5b61245f565b6124428484846001612340565b9250905081840481111561245957612458612230565b5b81810290505b9392505050565b600061247182611d86565b915061247c83611ff1565b92506124a97fffffffffffffffffffffffffffffffffffffffffffffffffffffffffffffffff8484612393565b905092915050565b7f4e487b7100000000000000000000000000000000000000000000000000000000600052601260045260246000fd5b60006124eb82611d86565b91506124f683611d86565b925082612506576125056124b1565b5b828204905092915050565b60006060820190506125266000830186612028565b6125336020830185612028565b6125406040830184611d90565b949350505050565b600060408201905061255d6000830185611d90565b61256a6020830184611d90565b9392505050565b60006040820190506125866000830185612028565b6125936020830184611d90565b9392505050565b7f4e487b7100000000000000000000000000000000000000000000000000000000600052602160045260246000fd5b60006125d482611ff1565b91506125df83611ff1565b9250826125ef576125ee6124b1565b5b828206905092915050565b61260381611f68565b811461260e57600080fd5b50565b600081519050612620816125fa565b92915050565b60006020828403121561263c5761263b611e6c565b5b600061264a84828501612611565b91505092915050565b600081519050919050565b600081905092915050565b600061267482612653565b61267e818561265e565b935061268e818560208601611dd6565b80840191505092915050565b60006126a68284612669565b91508190509291505056fea2646970667358221220aa59ca66a401ae5a5057f47ec9db19fa8cf5141146a609507b8f1f3ed4b89c8b64736f6c63430008180033",
  "linkReferences": {},
  "deployedLinkReferences": {}
}