{
  "_format": "hh-sol-artifact-1",
  "contractName": "BoboErc4646Bonus",
  "sourceName": "contracts/bonus/BoboErc4626Bonus.sol",
  "abi": [
    {
      "inputs": [
        {
          "internalType": "address",
          "name": "_assetAddress",
          "type": "address"
        },
        {
          "internalType": "uint256",
          "name": "_basicPoints",
          "type": "uint256"
        }
      ],
      "stateMutability": "nonpayable",
      "type": "constructor"
    },
    {
      "inputs": [
        {
          "internalType": "address",
          "name": "target",
          "type": "address"
        }
      ],
      "name": "AddressEmptyCode",
      "type": "error"
    },
    {
      "inputs": [
        {
          "internalType": "address",
          "name": "account",
          "type": "address"
        }
      ],
      "name": "AddressInsufficientBalance",
      "type": "error"
    },
    {
      "inputs": [
        {
          "internalType": "address",
          "name": "spender",
          "type": "address"
        },
        {
          "internalType": "uint256",
          "name": "allowance",
          "type": "uint256"
        },
        {
          "internalType": "uint256",
          "name": "needed",
          "type": "uint256"
        }
      ],
      "name": "ERC20InsufficientAllowance",
      "type": "error"
    },
    {
      "inputs": [
        {
          "internalType": "address",
          "name": "sender",
          "type": "address"
        },
        {
          "internalType": "uint256",
          "name": "balance",
          "type": "uint256"
        },
        {
          "internalType": "uint256",
          "name": "needed",
          "type": "uint256"
        }
      ],
      "name": "ERC20InsufficientBalance",
      "type": "error"
    },
    {
      "inputs": [
        {
          "internalType": "address",
          "name": "approver",
          "type": "address"
        }
      ],
      "name": "ERC20InvalidApprover",
      "type": "error"
    },
    {
      "inputs": [
        {
          "internalType": "address",
          "name": "receiver",
          "type": "address"
        }
      ],
      "name": "ERC20InvalidReceiver",
      "type": "error"
    },
    {
      "inputs": [
        {
          "internalType": "address",
          "name": "sender",
          "type": "address"
        }
      ],
      "name": "ERC20InvalidSender",
      "type": "error"
    },
    {
      "inputs": [
        {
          "internalType": "address",
          "name": "spender",
          "type": "address"
        }
      ],
      "name": "ERC20InvalidSpender",
      "type": "error"
    },
    {
      "inputs": [
        {
          "internalType": "address",
          "name": "receiver",
          "type": "address"
        },
        {
          "internalType": "uint256",
          "name": "assets",
          "type": "uint256"
        },
        {
          "internalType": "uint256",
          "name": "max",
          "type": "uint256"
        }
      ],
      "name": "ERC4626ExceededMaxDeposit",
      "type": "error"
    },
    {
      "inputs": [
        {
          "internalType": "address",
          "name": "receiver",
          "type": "address"
        },
        {
          "internalType": "uint256",
          "name": "shares",
          "type": "uint256"
        },
        {
          "internalType": "uint256",
          "name": "max",
          "type": "uint256"
        }
      ],
      "name": "ERC4626ExceededMaxMint",
      "type": "error"
    },
    {
      "inputs": [
        {
          "internalType": "address",
          "name": "owner",
          "type": "address"
        },
        {
          "internalType": "uint256",
          "name": "shares",
          "type": "uint256"
        },
        {
          "internalType": "uint256",
          "name": "max",
          "type": "uint256"
        }
      ],
      "name": "ERC4626ExceededMaxRedeem",
      "type": "error"
    },
    {
      "inputs": [
        {
          "internalType": "address",
          "name": "owner",
          "type": "address"
        },
        {
          "internalType": "uint256",
          "name": "assets",
          "type": "uint256"
        },
        {
          "internalType": "uint256",
          "name": "max",
          "type": "uint256"
        }
      ],
      "name": "ERC4626ExceededMaxWithdraw",
      "type": "error"
    },
    {
      "inputs": [],
      "name": "FailedInnerCall",
      "type": "error"
    },
    {
      "inputs": [],
      "name": "MathOverflowedMulDiv",
      "type": "error"
    },
    {
      "inputs": [
        {
          "internalType": "address",
          "name": "token",
          "type": "address"
        }
      ],
      "name": "SafeERC20FailedOperation",
      "type": "error"
    },
    {
      "anonymous": false,
      "inputs": [
        {
          "indexed": true,
          "internalType": "address",
          "name": "owner",
          "type": "address"
        },
        {
          "indexed": true,
          "internalType": "address",
          "name": "spender",
          "type": "address"
        },
        {
          "indexed": false,
          "internalType": "uint256",
          "name": "value",
          "type": "uint256"
        }
      ],
      "name": "Approval",
      "type": "event"
    },
    {
      "anonymous": false,
      "inputs": [
        {
          "indexed": true,
          "internalType": "address",
          "name": "sender",
          "type": "address"
        },
        {
          "indexed": true,
          "internalType": "address",
          "name": "owner",
          "type": "address"
        },
        {
          "indexed": false,
          "internalType": "uint256",
          "name": "assets",
          "type": "uint256"
        },
        {
          "indexed": false,
          "internalType": "uint256",
          "name": "shares",
          "type": "uint256"
        }
      ],
      "name": "Deposit",
      "type": "event"
    },
    {
      "anonymous": false,
      "inputs": [
        {
          "indexed": true,
          "internalType": "address",
          "name": "from",
          "type": "address"
        },
        {
          "indexed": true,
          "internalType": "address",
          "name": "to",
          "type": "address"
        },
        {
          "indexed": false,
          "internalType": "uint256",
          "name": "value",
          "type": "uint256"
        }
      ],
      "name": "Transfer",
      "type": "event"
    },
    {
      "anonymous": false,
      "inputs": [
        {
          "indexed": true,
          "internalType": "address",
          "name": "sender",
          "type": "address"
        },
        {
          "indexed": true,
          "internalType": "address",
          "name": "receiver",
          "type": "address"
        },
        {
          "indexed": true,
          "internalType": "address",
          "name": "owner",
          "type": "address"
        },
        {
          "indexed": false,
          "internalType": "uint256",
          "name": "assets",
          "type": "uint256"
        },
        {
          "indexed": false,
          "internalType": "uint256",
          "name": "shares",
          "type": "uint256"
        }
      ],
      "name": "Withdraw",
      "type": "event"
    },
    {
      "inputs": [],
      "name": "_owner",
      "outputs": [
        {
          "internalType": "address payable",
          "name": "",
          "type": "address"
        }
      ],
      "stateMutability": "view",
      "type": "function"
    },
    {
      "inputs": [
        {
          "internalType": "address",
          "name": "owner",
          "type": "address"
        },
        {
          "internalType": "address",
          "name": "spender",
          "type": "address"
        }
      ],
      "name": "allowance",
      "outputs": [
        {
          "internalType": "uint256",
          "name": "",
          "type": "uint256"
        }
      ],
      "stateMutability": "view",
      "type": "function"
    },
    {
      "inputs": [
        {
          "internalType": "address",
          "name": "spender",
          "type": "address"
        },
        {
          "internalType": "uint256",
          "name": "value",
          "type": "uint256"
        }
      ],
      "name": "approve",
      "outputs": [
        {
          "internalType": "bool",
          "name": "",
          "type": "bool"
        }
      ],
      "stateMutability": "nonpayable",
      "type": "function"
    },
    {
      "inputs": [],
      "name": "asset",
      "outputs": [
        {
          "internalType": "address",
          "name": "",
          "type": "address"
        }
      ],
      "stateMutability": "view",
      "type": "function"
    },
    {
      "inputs": [
        {
          "internalType": "address",
          "name": "account",
          "type": "address"
        }
      ],
      "name": "balanceOf",
      "outputs": [
        {
          "internalType": "uint256",
          "name": "",
          "type": "uint256"
        }
      ],
      "stateMutability": "view",
      "type": "function"
    },
    {
      "inputs": [
        {
          "internalType": "uint256",
          "name": "shares",
          "type": "uint256"
        }
      ],
      "name": "convertToAssets",
      "outputs": [
        {
          "internalType": "uint256",
          "name": "",
          "type": "uint256"
        }
      ],
      "stateMutability": "view",
      "type": "function"
    },
    {
      "inputs": [
        {
          "internalType": "uint256",
          "name": "assets",
          "type": "uint256"
        }
      ],
      "name": "convertToShares",
      "outputs": [
        {
          "internalType": "uint256",
          "name": "",
          "type": "uint256"
        }
      ],
      "stateMutability": "view",
      "type": "function"
    },
    {
      "inputs": [],
      "name": "decimals",
      "outputs": [
        {
          "internalType": "uint8",
          "name": "",
          "type": "uint8"
        }
      ],
      "stateMutability": "view",
      "type": "function"
    },
    {
      "inputs": [
        {
          "internalType": "uint256",
          "name": "assets",
          "type": "uint256"
        },
        {
          "internalType": "address",
          "name": "receiver",
          "type": "address"
        }
      ],
      "name": "deposit",
      "outputs": [
        {
          "internalType": "uint256",
          "name": "",
          "type": "uint256"
        }
      ],
      "stateMutability": "nonpayable",
      "type": "function"
    },
    {
      "inputs": [],
      "name": "entryFeeBasicPoints",
      "outputs": [
        {
          "internalType": "uint256",
          "name": "",
          "type": "uint256"
        }
      ],
      "stateMutability": "view",
      "type": "function"
    },
    {
      "inputs": [
        {
          "internalType": "address",
          "name": "",
          "type": "address"
        }
      ],
      "name": "maxDeposit",
      "outputs": [
        {
          "internalType": "uint256",
          "name": "",
          "type": "uint256"
        }
      ],
      "stateMutability": "view",
      "type": "function"
    },
    {
      "inputs": [
        {
          "internalType": "address",
          "name": "",
          "type": "address"
        }
      ],
      "name": "maxMint",
      "outputs": [
        {
          "internalType": "uint256",
          "name": "",
          "type": "uint256"
        }
      ],
      "stateMutability": "view",
      "type": "function"
    },
    {
      "inputs": [
        {
          "internalType": "address",
          "name": "owner",
          "type": "address"
        }
      ],
      "name": "maxRedeem",
      "outputs": [
        {
          "internalType": "uint256",
          "name": "",
          "type": "uint256"
        }
      ],
      "stateMutability": "view",
      "type": "function"
    },
    {
      "inputs": [
        {
          "internalType": "address",
          "name": "owner",
          "type": "address"
        }
      ],
      "name": "maxWithdraw",
      "outputs": [
        {
          "internalType": "uint256",
          "name": "",
          "type": "uint256"
        }
      ],
      "stateMutability": "view",
      "type": "function"
    },
    {
      "inputs": [
        {
          "internalType": "uint256",
          "name": "shares",
          "type": "uint256"
        },
        {
          "internalType": "address",
          "name": "receiver",
          "type": "address"
        }
      ],
      "name": "mint",
      "outputs": [
        {
          "internalType": "uint256",
          "name": "",
          "type": "uint256"
        }
      ],
      "stateMutability": "nonpayable",
      "type": "function"
    },
    {
      "inputs": [],
      "name": "name",
      "outputs": [
        {
          "internalType": "string",
          "name": "",
          "type": "string"
        }
      ],
      "stateMutability": "view",
      "type": "function"
    },
    {
      "inputs": [
        {
          "internalType": "uint256",
          "name": "assets",
          "type": "uint256"
        }
      ],
      "name": "previewDeposit",
      "outputs": [
        {
          "internalType": "uint256",
          "name": "",
          "type": "uint256"
        }
      ],
      "stateMutability": "view",
      "type": "function"
    },
    {
      "inputs": [
        {
          "internalType": "uint256",
          "name": "shares",
          "type": "uint256"
        }
      ],
      "name": "previewMint",
      "outputs": [
        {
          "internalType": "uint256",
          "name": "",
          "type": "uint256"
        }
      ],
      "stateMutability": "view",
      "type": "function"
    },
    {
      "inputs": [
        {
          "internalType": "uint256",
          "name": "shares",
          "type": "uint256"
        }
      ],
      "name": "previewRedeem",
      "outputs": [
        {
          "internalType": "uint256",
          "name": "",
          "type": "uint256"
        }
      ],
      "stateMutability": "view",
      "type": "function"
    },
    {
      "inputs": [
        {
          "internalType": "uint256",
          "name": "assets",
          "type": "uint256"
        }
      ],
      "name": "previewWithdraw",
      "outputs": [
        {
          "internalType": "uint256",
          "name": "",
          "type": "uint256"
        }
      ],
      "stateMutability": "view",
      "type": "function"
    },
    {
      "inputs": [
        {
          "internalType": "uint256",
          "name": "shares",
          "type": "uint256"
        },
        {
          "internalType": "address",
          "name": "receiver",
          "type": "address"
        },
        {
          "internalType": "address",
          "name": "owner",
          "type": "address"
        }
      ],
      "name": "redeem",
      "outputs": [
        {
          "internalType": "uint256",
          "name": "",
          "type": "uint256"
        }
      ],
      "stateMutability": "nonpayable",
      "type": "function"
    },
    {
      "inputs": [],
      "name": "symbol",
      "outputs": [
        {
          "internalType": "string",
          "name": "",
          "type": "string"
        }
      ],
      "stateMutability": "view",
      "type": "function"
    },
    {
      "inputs": [],
      "name": "totalAssets",
      "outputs": [
        {
          "internalType": "uint256",
          "name": "",
          "type": "uint256"
        }
      ],
      "stateMutability": "view",
      "type": "function"
    },
    {
      "inputs": [],
      "name": "totalSupply",
      "outputs": [
        {
          "internalType": "uint256",
          "name": "",
          "type": "uint256"
        }
      ],
      "stateMutability": "view",
      "type": "function"
    },
    {
      "inputs": [
        {
          "internalType": "address",
          "name": "to",
          "type": "address"
        },
        {
          "internalType": "uint256",
          "name": "value",
          "type": "uint256"
        }
      ],
      "name": "transfer",
      "outputs": [
        {
          "internalType": "bool",
          "name": "",
          "type": "bool"
        }
      ],
      "stateMutability": "nonpayable",
      "type": "function"
    },
    {
      "inputs": [
        {
          "internalType": "address",
          "name": "from",
          "type": "address"
        },
        {
          "internalType": "address",
          "name": "to",
          "type": "address"
        },
        {
          "internalType": "uint256",
          "name": "value",
          "type": "uint256"
        }
      ],
      "name": "transferFrom",
      "outputs": [
        {
          "internalType": "bool",
          "name": "",
          "type": "bool"
        }
      ],
      "stateMutability": "nonpayable",
      "type": "function"
    },
    {
      "inputs": [
        {
          "internalType": "uint256",
          "name": "assets",
          "type": "uint256"
        },
        {
          "internalType": "address",
          "name": "receiver",
          "type": "address"
        },
        {
          "internalType": "address",
          "name": "owner",
          "type": "address"
        }
      ],
      "name": "withdraw",
      "outputs": [
        {
          "internalType": "uint256",
          "name": "",
          "type": "uint256"
        }
      ],
      "stateMutability": "nonpayable",
      "type": "function"
    }
  ],
  "bytecode": "0x60c06040523480156200001157600080fd5b5060405162002e2438038062002e24833981810160405281019062000037919062000345565b816040518060400160405280600a81526020017f426f626f20746f6b656e000000000000000000000000000000000000000000008152506040518060400160405280600581526020017f76424f424f0000000000000000000000000000000000000000000000000000008152508160039081620000b59190620005fc565b508060049081620000c79190620005fc565b505050600080620000de836200018660201b60201c565b9150915081620000f0576012620000f2565b805b60ff1660a08160ff16815250508273ffffffffffffffffffffffffffffffffffffffff1660808173ffffffffffffffffffffffffffffffffffffffff168152505050505033600560006101000a81548173ffffffffffffffffffffffffffffffffffffffff021916908373ffffffffffffffffffffffffffffffffffffffff160217905550806006819055505050620007a7565b6000806000808473ffffffffffffffffffffffffffffffffffffffff1660405160240160405160208183030381529060405263313ce56760e01b6020820180517bffffffffffffffffffffffffffffffffffffffffffffffffffffffff8381831617835250505050604051620001fd91906200075c565b600060405180830381855afa9150503d80600081146200023a576040519150601f19603f3d011682016040523d82523d6000602084013e6200023f565b606091505b50915091508180156200025457506020815110155b15620002915760008180602001905181019062000272919062000775565b905060ff801681116200028f57600181945094505050506200029b565b505b6000809350935050505b915091565b600080fd5b600073ffffffffffffffffffffffffffffffffffffffff82169050919050565b6000620002d282620002a5565b9050919050565b620002e481620002c5565b8114620002f057600080fd5b50565b6000815190506200030481620002d9565b92915050565b6000819050919050565b6200031f816200030a565b81146200032b57600080fd5b50565b6000815190506200033f8162000314565b92915050565b600080604083850312156200035f576200035e620002a0565b5b60006200036f85828601620002f3565b925050602062000382858286016200032e565b9150509250929050565b600081519050919050565b7f4e487b7100000000000000000000000000000000000000000000000000000000600052604160045260246000fd5b7f4e487b7100000000000000000000000000000000000000000000000000000000600052602260045260246000fd5b600060028204905060018216806200040e57607f821691505b602082108103620004245762000423620003c6565b5b50919050565b60008190508160005260206000209050919050565b60006020601f8301049050919050565b600082821b905092915050565b6000600883026200048e7fffffffffffffffffffffffffffffffffffffffffffffffffffffffffffffffff826200044f565b6200049a86836200044f565b95508019841693508086168417925050509392505050565b6000819050919050565b6000620004dd620004d7620004d1846200030a565b620004b2565b6200030a565b9050919050565b6000819050919050565b620004f983620004bc565b620005116200050882620004e4565b8484546200045c565b825550505050565b600090565b6200052862000519565b62000535818484620004ee565b505050565b5b818110156200055d57620005516000826200051e565b6001810190506200053b565b5050565b601f821115620005ac5762000576816200042a565b62000581846200043f565b8101602085101562000591578190505b620005a9620005a0856200043f565b8301826200053a565b50505b505050565b600082821c905092915050565b6000620005d160001984600802620005b1565b1980831691505092915050565b6000620005ec8383620005be565b9150826002028217905092915050565b62000607826200038c565b67ffffffffffffffff81111562000623576200062262000397565b5b6200062f8254620003f5565b6200063c82828562000561565b600060209050601f8311600181146200067457600084156200065f578287015190505b6200066b8582620005de565b865550620006db565b601f19841662000684866200042a565b60005b82811015620006ae5784890151825560018201915060208501945060208101905062000687565b86831015620006ce5784890151620006ca601f891682620005be565b8355505b6001600288020188555050505b505050505050565b600081519050919050565b600081905092915050565b60005b8381101562000719578082015181840152602081019050620006fc565b60008484015250505050565b60006200073282620006e3565b6200073e8185620006ee565b935062000750818560208601620006f9565b80840191505092915050565b60006200076a828462000725565b915081905092915050565b6000602082840312156200078e576200078d620002a0565b5b60006200079e848285016200032e565b91505092915050565b60805160a051612642620007e2600039600061080f01526000818161063201528181610841015281816115ee015261175e01526126426000f3fe608060405234801561001057600080fd5b50600436106101a95760003560e01c806394bf804d116100f9578063ba08765211610097578063ce96cb7711610071578063ce96cb771461056e578063d905777e1461059e578063dd62ed3e146105ce578063ef8b30f7146105fe576101a9565b8063ba087652146104de578063c63d75b61461050e578063c6e6f5921461053e576101a9565b8063ab980f3d116100d3578063ab980f3d14610442578063b2bdfa7b14610460578063b3d7f6b91461047e578063b460af94146104ae576101a9565b806394bf804d146103c457806395d89b41146103f4578063a9059cbb14610412576101a9565b806323b872dd11610166578063402d267d11610140578063402d267d146103045780634cdad506146103345780636e553f651461036457806370a0823114610394576101a9565b806323b872dd14610298578063313ce567146102c857806338d52e0f146102e6576101a9565b806301e1d114146101ae57806306fdde03146101cc57806307a2d13a146101ea578063095ea7b31461021a5780630a28a4771461024a57806318160ddd1461027a575b600080fd5b6101b661062e565b6040516101c39190611d2b565b60405180910390f35b6101d46106cf565b6040516101e19190611dd6565b60405180910390f35b61020460048036038101906101ff9190611e29565b610761565b6040516102119190611d2b565b60405180910390f35b610234600480360381019061022f9190611eb4565b610775565b6040516102419190611f0f565b60405180910390f35b610264600480360381019061025f9190611e29565b610798565b6040516102719190611d2b565b60405180910390f35b6102826107ca565b60405161028f9190611d2b565b60405180910390f35b6102b260048036038101906102ad9190611f2a565b6107d4565b6040516102bf9190611f0f565b60405180910390f35b6102d0610803565b6040516102dd9190611f99565b60405180910390f35b6102ee61083d565b6040516102fb9190611fc3565b60405180910390f35b61031e60048036038101906103199190611fde565b610865565b60405161032b9190611d2b565b60405180910390f35b61034e60048036038101906103499190611e29565b61088f565b60405161035b9190611d2b565b60405180910390f35b61037e6004803603810190610379919061200b565b6108c1565b60405161038b9190611d2b565b60405180910390f35b6103ae60048036038101906103a99190611fde565b610943565b6040516103bb9190611d2b565b60405180910390f35b6103de60048036038101906103d9919061200b565b61098b565b6040516103eb9190611d2b565b60405180910390f35b6103fc610a0d565b6040516104099190611dd6565b60405180910390f35b61042c60048036038101906104279190611eb4565b610a9f565b6040516104399190611f0f565b60405180910390f35b61044a610ac2565b6040516104579190611d2b565b60405180910390f35b610468610ac8565b604051610475919061206c565b60405180910390f35b61049860048036038101906104939190611e29565b610aee565b6040516104a59190611d2b565b60405180910390f35b6104c860048036038101906104c39190612087565b610b20565b6040516104d59190611d2b565b60405180910390f35b6104f860048036038101906104f39190612087565b610ba4565b6040516105059190611d2b565b60405180910390f35b61052860048036038101906105239190611fde565b610c28565b6040516105359190611d2b565b60405180910390f35b61055860048036038101906105539190611e29565b610c52565b6040516105659190611d2b565b60405180910390f35b61058860048036038101906105839190611fde565b610c66565b6040516105959190611d2b565b60405180910390f35b6105b860048036038101906105b39190611fde565b610c82565b6040516105c59190611d2b565b60405180910390f35b6105e860048036038101906105e391906120da565b610c94565b6040516105f59190611d2b565b60405180910390f35b61061860048036038101906106139190611e29565b610d1b565b6040516106259190611d2b565b60405180910390f35b60007f000000000000000000000000000000000000000000000000000000000000000073ffffffffffffffffffffffffffffffffffffffff166370a08231306040518263ffffffff1660e01b81526004016106899190611fc3565b602060405180830381865afa1580156106a6573d6000803e3d6000fd5b505050506040513d601f19601f820116820180604052508101906106ca919061212f565b905090565b6060600380546106de9061218b565b80601f016020809104026020016040519081016040528092919081815260200182805461070a9061218b565b80156107575780601f1061072c57610100808354040283529160200191610757565b820191906000526020600020905b81548152906001019060200180831161073a57829003601f168201915b5050505050905090565b600061076e826000610d4d565b9050919050565b600080610780610da6565b905061078d818585610dae565b600191505092915050565b6000806107ac836107a7610dc0565b610dc5565b90506107c281846107bd91906121eb565b610de9565b915050919050565b6000600254905090565b6000806107df610da6565b90506107ec858285610dfd565b6107f7858585610e91565b60019150509392505050565b600061080d610f85565b7f0000000000000000000000000000000000000000000000000000000000000000610838919061221f565b905090565b60007f0000000000000000000000000000000000000000000000000000000000000000905090565b60007fffffffffffffffffffffffffffffffffffffffffffffffffffffffffffffffff9050919050565b60008061089b83610f8a565b90506108ae816108a9610dc0565b610f9e565b816108b99190612254565b915050919050565b6000806108cd83610865565b905080841115610918578284826040517f79012fb200000000000000000000000000000000000000000000000000000000815260040161090f93929190612288565b60405180910390fd5b600061092385610d1b565b9050610938610930610da6565b858784610fcd565b809250505092915050565b60008060008373ffffffffffffffffffffffffffffffffffffffff1673ffffffffffffffffffffffffffffffffffffffff168152602001908152602001600020549050919050565b60008061099783610c28565b9050808411156109e2578284826040517f284ff6670000000000000000000000000000000000000000000000000000000081526004016109d993929190612288565b60405180910390fd5b60006109ed85610aee565b9050610a026109fa610da6565b858388610fcd565b809250505092915050565b606060048054610a1c9061218b565b80601f0160208091040260200160405190810160405280929190818152602001828054610a489061218b565b8015610a955780601f10610a6a57610100808354040283529160200191610a95565b820191906000526020600020905b815481529060010190602001808311610a7857829003601f168201915b5050505050905090565b600080610aaa610da6565b9050610ab7818585610e91565b600191505092915050565b60065481565b600560009054906101000a900473ffffffffffffffffffffffffffffffffffffffff1681565b600080610afa83611056565b9050610b0d81610b0861106a565b610dc5565b81610b1891906121eb565b915050919050565b600080610b2c83610c66565b905080851115610b77578285826040517ffe9cceec000000000000000000000000000000000000000000000000000000008152600401610b6e93929190612288565b60405180910390fd5b6000610b8286610798565b9050610b98610b8f610da6565b86868985611074565b80925050509392505050565b600080610bb083610c82565b905080851115610bfb578285826040517fb94abeec000000000000000000000000000000000000000000000000000000008152600401610bf293929190612288565b60405180910390fd5b6000610c068661088f565b9050610c1c610c13610da6565b8686848a611074565b80925050509392505050565b60007fffffffffffffffffffffffffffffffffffffffffffffffffffffffffffffffff9050919050565b6000610c5f8260006110ff565b9050919050565b6000610c7b610c7483610943565b6000610d4d565b9050919050565b6000610c8d82610943565b9050919050565b6000600160008473ffffffffffffffffffffffffffffffffffffffff1673ffffffffffffffffffffffffffffffffffffffff16815260200190815260200160002060008373ffffffffffffffffffffffffffffffffffffffff1673ffffffffffffffffffffffffffffffffffffffff16815260200190815260200160002054905092915050565b600080610d2f83610d2a61106a565b610f9e565b9050610d458184610d409190612254565b611158565b915050919050565b6000610d9e6001610d5c61062e565b610d6691906121eb565b610d6e610f85565b600a610d7a91906123f2565b610d826107ca565b610d8c91906121eb565b848661116c909392919063ffffffff16565b905092915050565b600033905090565b610dbb83838360016111c3565b505050565b600090565b6000610de18261271060018661116c909392919063ffffffff16565b905092915050565b6000610df68260016110ff565b9050919050565b6000610e098484610c94565b90507fffffffffffffffffffffffffffffffffffffffffffffffffffffffffffffffff8114610e8b5781811015610e7b578281836040517ffb8f41b2000000000000000000000000000000000000000000000000000000008152600401610e7293929190612288565b60405180910390fd5b610e8a848484840360006111c3565b5b50505050565b600073ffffffffffffffffffffffffffffffffffffffff168373ffffffffffffffffffffffffffffffffffffffff1603610f035760006040517f96c6fd1e000000000000000000000000000000000000000000000000000000008152600401610efa9190611fc3565b60405180910390fd5b600073ffffffffffffffffffffffffffffffffffffffff168273ffffffffffffffffffffffffffffffffffffffff1603610f755760006040517fec442f05000000000000000000000000000000000000000000000000000000008152600401610f6c9190611fc3565b60405180910390fd5b610f8083838361139a565b505050565b600090565b6000610f97826000610d4d565b9050919050565b6000610fc58261271084610fb291906121eb565b60018661116c909392919063ffffffff16565b905092915050565b6000610fe083610fdb61106a565b610f9e565b90506000610fec6115bf565b9050610ffa868686866115e9565b60008211801561103657503073ffffffffffffffffffffffffffffffffffffffff168173ffffffffffffffffffffffffffffffffffffffff1614155b1561104e5761104d61104661083d565b828461168c565b5b505050505050565b6000611063826001610d4d565b9050919050565b6000600654905090565b600061108783611082610dc0565b610dc5565b9050600061109361170b565b90506110a28787878787611710565b6000821180156110de57503073ffffffffffffffffffffffffffffffffffffffff168173ffffffffffffffffffffffffffffffffffffffff1614155b156110f6576110f56110ee61083d565b828461168c565b5b50505050505050565b600061115061110c610f85565b600a61111891906123f2565b6111206107ca565b61112a91906121eb565b600161113461062e565b61113e91906121eb565b848661116c909392919063ffffffff16565b905092915050565b60006111658260006110ff565b9050919050565b60008061117a868686611809565b905061118583611910565b80156111a257506000848061119d5761119c61243d565b5b868809115b156111b7576001816111b491906121eb565b90505b80915050949350505050565b600073ffffffffffffffffffffffffffffffffffffffff168473ffffffffffffffffffffffffffffffffffffffff16036112355760006040517fe602df0500000000000000000000000000000000000000000000000000000000815260040161122c9190611fc3565b60405180910390fd5b600073ffffffffffffffffffffffffffffffffffffffff168373ffffffffffffffffffffffffffffffffffffffff16036112a75760006040517f94280d6200000000000000000000000000000000000000000000000000000000815260040161129e9190611fc3565b60405180910390fd5b81600160008673ffffffffffffffffffffffffffffffffffffffff1673ffffffffffffffffffffffffffffffffffffffff16815260200190815260200160002060008573ffffffffffffffffffffffffffffffffffffffff1673ffffffffffffffffffffffffffffffffffffffff168152602001908152602001600020819055508015611394578273ffffffffffffffffffffffffffffffffffffffff168473ffffffffffffffffffffffffffffffffffffffff167f8c5be1e5ebec7d5bd14f71427d1e84f3dd0314c0f7b2291e5b200ac8c7c3b9258460405161138b9190611d2b565b60405180910390a35b50505050565b600073ffffffffffffffffffffffffffffffffffffffff168373ffffffffffffffffffffffffffffffffffffffff16036113ec5780600260008282546113e091906121eb565b925050819055506114bf565b60008060008573ffffffffffffffffffffffffffffffffffffffff1673ffffffffffffffffffffffffffffffffffffffff16815260200190815260200160002054905081811015611478578381836040517fe450d38c00000000000000000000000000000000000000000000000000000000815260040161146f93929190612288565b60405180910390fd5b8181036000808673ffffffffffffffffffffffffffffffffffffffff1673ffffffffffffffffffffffffffffffffffffffff16815260200190815260200160002081905550505b600073ffffffffffffffffffffffffffffffffffffffff168273ffffffffffffffffffffffffffffffffffffffff16036115085780600260008282540392505081905550611555565b806000808473ffffffffffffffffffffffffffffffffffffffff1673ffffffffffffffffffffffffffffffffffffffff168152602001908152602001600020600082825401925050819055505b8173ffffffffffffffffffffffffffffffffffffffff168373ffffffffffffffffffffffffffffffffffffffff167fddf252ad1be2c89b69c2b068fc378daa952ba7f163c4a11628f55a4df523b3ef836040516115b29190611d2b565b60405180910390a3505050565b6000600560009054906101000a900473ffffffffffffffffffffffffffffffffffffffff16905090565b6116157f000000000000000000000000000000000000000000000000000000000000000085308561193e565b61161f83826119c0565b8273ffffffffffffffffffffffffffffffffffffffff168473ffffffffffffffffffffffffffffffffffffffff167fdcbc1c05240f31ff3ad067ef1ee35ce4997762752e3a095284754544f4c709d7848460405161167e92919061246c565b60405180910390a350505050565b611706838473ffffffffffffffffffffffffffffffffffffffff1663a9059cbb85856040516024016116bf929190612495565b604051602081830303815290604052915060e01b6020820180517bffffffffffffffffffffffffffffffffffffffffffffffffffffffff8381831617835250505050611a42565b505050565b600090565b8273ffffffffffffffffffffffffffffffffffffffff168573ffffffffffffffffffffffffffffffffffffffff161461174f5761174e838683610dfd565b5b6117598382611ad9565b6117847f0000000000000000000000000000000000000000000000000000000000000000858461168c565b8273ffffffffffffffffffffffffffffffffffffffff168473ffffffffffffffffffffffffffffffffffffffff168673ffffffffffffffffffffffffffffffffffffffff167ffbde797d201c681b91056529119e0b02407c7bb96a4a2c75c01fc9667232c8db85856040516117fa92919061246c565b60405180910390a45050505050565b60008083850290506000801985870982811083820303915050600081036118445783828161183a5761183961243d565b5b0492505050611909565b80841161187d576040517f227bc15300000000000000000000000000000000000000000000000000000000815260040160405180910390fd5b600084868809905082811182039150808303925060008560000386169050808604955080840493506001818260000304019050808302841793506000600287600302189050808702600203810290508087026002038102905080870260020381029050808702600203810290508087026002038102905080870260020381029050808502955050505050505b9392505050565b600060016002836003811115611929576119286124be565b5b61193391906124ed565b60ff16149050919050565b6119ba848573ffffffffffffffffffffffffffffffffffffffff166323b872dd8686866040516024016119739392919061251e565b604051602081830303815290604052915060e01b6020820180517bffffffffffffffffffffffffffffffffffffffffffffffffffffffff8381831617835250505050611a42565b50505050565b600073ffffffffffffffffffffffffffffffffffffffff168273ffffffffffffffffffffffffffffffffffffffff1603611a325760006040517fec442f05000000000000000000000000000000000000000000000000000000008152600401611a299190611fc3565b60405180910390fd5b611a3e6000838361139a565b5050565b6000611a6d828473ffffffffffffffffffffffffffffffffffffffff16611b5b90919063ffffffff16565b90506000815114158015611a92575080806020019051810190611a909190612581565b155b15611ad457826040517f5274afe7000000000000000000000000000000000000000000000000000000008152600401611acb9190611fc3565b60405180910390fd5b505050565b600073ffffffffffffffffffffffffffffffffffffffff168273ffffffffffffffffffffffffffffffffffffffff1603611b4b5760006040517f96c6fd1e000000000000000000000000000000000000000000000000000000008152600401611b429190611fc3565b60405180910390fd5b611b578260008361139a565b5050565b6060611b6983836000611b71565b905092915050565b606081471015611bb857306040517fcd786059000000000000000000000000000000000000000000000000000000008152600401611baf9190611fc3565b60405180910390fd5b6000808573ffffffffffffffffffffffffffffffffffffffff168486604051611be191906125f5565b60006040518083038185875af1925050503d8060008114611c1e576040519150601f19603f3d011682016040523d82523d6000602084013e611c23565b606091505b5091509150611c33868383611c3e565b925050509392505050565b606082611c5357611c4e82611ccd565b611cc5565b60008251148015611c7b575060008473ffffffffffffffffffffffffffffffffffffffff163b145b15611cbd57836040517f9996b315000000000000000000000000000000000000000000000000000000008152600401611cb49190611fc3565b60405180910390fd5b819050611cc6565b5b9392505050565b600081511115611ce05780518082602001fd5b6040517f1425ea4200000000000000000000000000000000000000000000000000000000815260040160405180910390fd5b6000819050919050565b611d2581611d12565b82525050565b6000602082019050611d406000830184611d1c565b92915050565b600081519050919050565b600082825260208201905092915050565b60005b83811015611d80578082015181840152602081019050611d65565b60008484015250505050565b6000601f19601f8301169050919050565b6000611da882611d46565b611db28185611d51565b9350611dc2818560208601611d62565b611dcb81611d8c565b840191505092915050565b60006020820190508181036000830152611df08184611d9d565b905092915050565b600080fd5b611e0681611d12565b8114611e1157600080fd5b50565b600081359050611e2381611dfd565b92915050565b600060208284031215611e3f57611e3e611df8565b5b6000611e4d84828501611e14565b91505092915050565b600073ffffffffffffffffffffffffffffffffffffffff82169050919050565b6000611e8182611e56565b9050919050565b611e9181611e76565b8114611e9c57600080fd5b50565b600081359050611eae81611e88565b92915050565b60008060408385031215611ecb57611eca611df8565b5b6000611ed985828601611e9f565b9250506020611eea85828601611e14565b9150509250929050565b60008115159050919050565b611f0981611ef4565b82525050565b6000602082019050611f246000830184611f00565b92915050565b600080600060608486031215611f4357611f42611df8565b5b6000611f5186828701611e9f565b9350506020611f6286828701611e9f565b9250506040611f7386828701611e14565b9150509250925092565b600060ff82169050919050565b611f9381611f7d565b82525050565b6000602082019050611fae6000830184611f8a565b92915050565b611fbd81611e76565b82525050565b6000602082019050611fd86000830184611fb4565b92915050565b600060208284031215611ff457611ff3611df8565b5b600061200284828501611e9f565b91505092915050565b6000806040838503121561202257612021611df8565b5b600061203085828601611e14565b925050602061204185828601611e9f565b9150509250929050565b600061205682611e56565b9050919050565b6120668161204b565b82525050565b6000602082019050612081600083018461205d565b92915050565b6000806000606084860312156120a05761209f611df8565b5b60006120ae86828701611e14565b93505060206120bf86828701611e9f565b92505060406120d086828701611e9f565b9150509250925092565b600080604083850312156120f1576120f0611df8565b5b60006120ff85828601611e9f565b925050602061211085828601611e9f565b9150509250929050565b60008151905061212981611dfd565b92915050565b60006020828403121561214557612144611df8565b5b60006121538482850161211a565b91505092915050565b7f4e487b7100000000000000000000000000000000000000000000000000000000600052602260045260246000fd5b600060028204905060018216806121a357607f821691505b6020821081036121b6576121b561215c565b5b50919050565b7f4e487b7100000000000000000000000000000000000000000000000000000000600052601160045260246000fd5b60006121f682611d12565b915061220183611d12565b9250828201905080821115612219576122186121bc565b5b92915050565b600061222a82611f7d565b915061223583611f7d565b9250828201905060ff81111561224e5761224d6121bc565b5b92915050565b600061225f82611d12565b915061226a83611d12565b9250828203905081811115612282576122816121bc565b5b92915050565b600060608201905061229d6000830186611fb4565b6122aa6020830185611d1c565b6122b76040830184611d1c565b949350505050565b60008160011c9050919050565b6000808291508390505b6001851115612316578086048111156122f2576122f16121bc565b5b60018516156123015780820291505b808102905061230f856122bf565b94506122d6565b94509492505050565b60008261232f57600190506123eb565b8161233d57600090506123eb565b8160018114612353576002811461235d5761238c565b60019150506123eb565b60ff84111561236f5761236e6121bc565b5b8360020a915084821115612386576123856121bc565b5b506123eb565b5060208310610133831016604e8410600b84101617156123c15782820a9050838111156123bc576123bb6121bc565b5b6123eb565b6123ce84848460016122cc565b925090508184048111156123e5576123e46121bc565b5b81810290505b9392505050565b60006123fd82611d12565b915061240883611f7d565b92506124357fffffffffffffffffffffffffffffffffffffffffffffffffffffffffffffffff848461231f565b905092915050565b7f4e487b7100000000000000000000000000000000000000000000000000000000600052601260045260246000fd5b60006040820190506124816000830185611d1c565b61248e6020830184611d1c565b9392505050565b60006040820190506124aa6000830185611fb4565b6124b76020830184611d1c565b9392505050565b7f4e487b7100000000000000000000000000000000000000000000000000000000600052602160045260246000fd5b60006124f882611f7d565b915061250383611f7d565b9250826125135761251261243d565b5b828206905092915050565b60006060820190506125336000830186611fb4565b6125406020830185611fb4565b61254d6040830184611d1c565b949350505050565b61255e81611ef4565b811461256957600080fd5b50565b60008151905061257b81612555565b92915050565b60006020828403121561259757612596611df8565b5b60006125a58482850161256c565b91505092915050565b600081519050919050565b600081905092915050565b60006125cf826125ae565b6125d981856125b9565b93506125e9818560208601611d62565b80840191505092915050565b600061260182846125c4565b91508190509291505056fea26469706673582212205fc704569593c38981d47ca2a04743c3f1644a3d4764aff21716ab8a6d0665af64736f6c63430008180033",
  "linkReferences": {},
  "deployedLinkReferences": {}
}